S013000074696D65725F636C6F636B2E7372656385
S113000012C02CC02BC0ADC283C228C027C026C0DA
S113001025C024C023C022C021C020C01FC01EC0D0
S11300201DC01CC01BC011241FBECFE5D4E0DEBF21
S1130030CDBF10E0A0E6B0E0E0EDF5E002C0059031
S11300400D92AE36B107D9F720E0AEE6B0E001C0BC
S11300501D92A637B207E1F714D2B8C2D1CF8823D4
S113006024F492B3906892BB03C092B39F7792BB7F
S113007086FF04C092B3906492BB03C092B39F7B8B
S113008092BB85FF04C092B3906292BB03C092B34B
S11300909F7D92BB84FF04C082B3806182BB0895BC
S11300A082B38F7E82BB0895CF93C82F807FD7DF22
S11300B088B3826088BB88B3886088BB8FEC97E084
S11300C00197F1F700C0000088B3877F88BB88B32D
S11300D08D7F88BB8FEC97E00197F1F700C000009B
S11300E08C2F8295807FBBDF88B3826088BB88B306
S11300F0886088BB8FEC97E00197F1F700C000009F
S113010088B3877F88BB88B38D7F88BB8FEC97E0EB
S11301100197F1F700C00000CF910895CF93C82F45
S1130120807F9DDF88B3886088BB8FEC97E0019760
S1130130F1F700C0000088B3877F88BB8FEC97E09D
S11301400197F1F700C000008C2F8295807F87DF34
S113015088B3886088BB8FEC97E00197F1F700C003
S1130160000088B3877F88BB8FEC97E00197F1F795
S113017000C00000CF9108958FE295E70197F1F751
S113018000C0000080E06BDF88B38D7F88BB88B33C
S11301908B7F88BB88B3877F88BB81B3806181BB39
S11301A081B3806281BB81B3806481BB81B3806889
S11301B081BB87B3826087BB87B3846087BB87B307
S11301C0886087BB80E34BDF88B3886088BB8FEC93
S11301D097E00197F1F700C0000088B3877F88BBE0
S11301E08FEC97E00197F1F700C0000080E337DF60
S11301F088B3886088BB8FEC97E00197F1F700C063
S1130200000088B3877F88BB8FEC97E00197F1F7F4
S113021000C0000080E223DF88B3886088BB8FECD5
S113022097E00197F1F700C0000088B3877F88BB8F
S11302308FEC97E00197F1F700C0000088E26EDFD1
S11302408CE06CDF0895623031F0633031F061305E
S113025029F4805C03C08C5E01C08C5A80685EDF28
S11302600895CF93DF93EC0102C01EDF21968881AD
S11302708111FBCFDF91CF91089580916F00882386
S1130280C1F020917000309171002115310551F4B5
S1130290815080936F0087EE93E090937100809378
S11302A0700008952150310930937100209370003B
S11302B008958091700090917100009721F482E07C
S11302C080936E000895019790937100809370005D
S11302D00895B69910C080916F00853060F0855004
S11302E080936F002FEF82E597E02150804090408B
S11302F0E1F700C00000B79910C080916F00873308
S113030060F48B5F80936F002FEF82E597E02150BC
S113031080409040E1F700C00000B0991DC080917A
S11303206F008733C8F490916E00911108C0882340
S113033051F086E0E6D081E080936E0004C080E056
S1130340E0D010926E002FEF82E597E021508040BC
S11303509040E1F700C000000895EF92FF920F93E0
S11303601F93CF93DF93CDB7DEB727970FB6F894DB
S1130370DEBF0FBECDBF10916F008DEC189F812D95
S11303801124869586958695282F220F922F990FF2
S1130390990F920F191B105D00E3080FE091700094
S11303A0F09171009F01ADECBCEC04D1969587955A
S11303B096958795969587959C01220F331F880FF4
S11303C0991F880F991F880F991F820F931F9F01F0
S11303D0281B390B50E3520F9F01ECD07C01F6949B
S11303E0E794F694E794F694E7949701E3D096950E
S11303F0879596958795969587959C01220F331F2F
S1130400880F991F880F991F880F991F820F931FB8
S11304109701281B390B40E3420F9F01369527951E
S113042036952795ABE7B4E1C5D096958795805D61
S113043009831A839AE39B838C834D835E831F8293
S113044061E08AE000DFCE0101960BDF27960FB64C
S1130450F894DEBF0FBECDBFDF91CF911F910F91F6
S1130460FF90EF90089580916E00823031F482B352
S1130470846082BB80E045D0089582B38B7F82BBC9
S1130480089587B38E7387BB88B3816C88BB81B3AF
S1130490846081BB71DE2FE788E391E021508040C6
S11304A09040E1F700C0000060E08AE0CCDE80E626
S11304B090E0D7DE61E08AE0C6DE87E690E0D1DE38
S11304C08DE391E0909375008093740088E012D0DE
S11304D00CD080E006D08FE106D0FBDE3EDFC3DF28
S11304E0FCCF84BD089583BD089589B7806889BF12
S11304F07894089595B5977B95BD95B5892B85BD61
S1130500089595B5987F95BD95B5892B85BD0895BA
S11305101F920F920FB60F9211242F933F934F9374
S11305205F936F937F938F939F93AF93BF93EF9357
S1130530FF93E0917200F0917300309709F00995F0
S1130540FF91EF91BF91AF919F918F917F916F91A7
S11305505F914F913F912F910F900FBE0F901F907D
S113056018951F920F920FB60F9211242F933F9359
S11305704F935F936F937F938F939F93AF93BF93A7
S1130580EF93FF93E0917400F0917500309709F0B8
S11305900995FF91EF91BF91AF919F918F917F91B9
S11305A06F915F914F913F912F910F900FBE0F90DC
S11305B01F901895A29FB001B39FC001A39F01D0C3
S11305C0B29F700D811D1124911D0895F894FFCFE1
S11105D053433A6D53430030303A303030001C
S9030000FC
